{
  "_format": "hh3-artifact-1",
  "contractName": "ServiceEscrow",
  "sourceName": "contracts/ServiceEscrow.sol",
  "abi": [
    {
      "anonymous": false,
      "inputs": [
        {
          "indexed": true,
          "internalType": "uint256",
          "name": "projectId",
          "type": "uint256"
        },
        {
          "indexed": true,
          "internalType": "uint256",
          "name": "milestoneIndex",
          "type": "uint256"
        },
        {
          "indexed": false,
          "internalType": "uint256",
          "name": "providerAmountWei",
          "type": "uint256"
        },
        {
          "indexed": false,
          "internalType": "uint256",
          "name": "clientRefundAmountWei",
          "type": "uint256"
        }
      ],
      "name": "MilestoneSettled",
      "type": "event"
    },
    {
      "anonymous": false,
      "inputs": [
        {
          "indexed": true,
          "internalType": "uint256",
          "name": "projectId",
          "type": "uint256"
        },
        {
          "indexed": true,
          "internalType": "uint256",
          "name": "localContractId",
          "type": "uint256"
        },
        {
          "indexed": true,
          "internalType": "address",
          "name": "provider",
          "type": "address"
        }
      ],
      "name": "ProjectCreated",
      "type": "event"
    },
    {
      "anonymous": false,
      "inputs": [
        {
          "indexed": true,
          "internalType": "uint256",
          "name": "projectId",
          "type": "uint256"
        },
        {
          "indexed": true,
          "internalType": "address",
          "name": "client",
          "type": "address"
        },
        {
          "indexed": false,
          "internalType": "uint256",
          "name": "totalWei",
          "type": "uint256"
        }
      ],
      "name": "ProjectFunded",
      "type": "event"
    },
    {
      "inputs": [
        {
          "internalType": "uint256",
          "name": "localContractId",
          "type": "uint256"
        },
        {
          "internalType": "address",
          "name": "client",
          "type": "address"
        },
        {
          "internalType": "address",
          "name": "provider",
          "type": "address"
        },
        {
          "internalType": "string[]",
          "name": "titles",
          "type": "string[]"
        },
        {
          "internalType": "uint256[]",
          "name": "amountsWei",
          "type": "uint256[]"
        }
      ],
      "name": "createProject",
      "outputs": [
        {
          "internalType": "uint256",
          "name": "",
          "type": "uint256"
        }
      ],
      "stateMutability": "nonpayable",
      "type": "function"
    },
    {
      "inputs": [
        {
          "internalType": "uint256",
          "name": "projectId",
          "type": "uint256"
        }
      ],
      "name": "getMilestones",
      "outputs": [
        {
          "components": [
            {
              "internalType": "string",
              "name": "title",
              "type": "string"
            },
            {
              "internalType": "uint256",
              "name": "amountWei",
              "type": "uint256"
            },
            {
              "internalType": "bool",
              "name": "settled",
              "type": "bool"
            }
          ],
          "internalType": "struct ServiceEscrow.Milestone[]",
          "name": "",
          "type": "tuple[]"
        }
      ],
      "stateMutability": "view",
      "type": "function"
    },
    {
      "inputs": [],
      "name": "nextProjectId",
      "outputs": [
        {
          "internalType": "uint256",
          "name": "",
          "type": "uint256"
        }
      ],
      "stateMutability": "view",
      "type": "function"
    },
    {
      "inputs": [
        {
          "internalType": "uint256",
          "name": "",
          "type": "uint256"
        }
      ],
      "name": "projects",
      "outputs": [
        {
          "internalType": "uint256",
          "name": "localContractId",
          "type": "uint256"
        },
        {
          "internalType": "address",
          "name": "client",
          "type": "address"
        },
        {
          "internalType": "address",
          "name": "provider",
          "type": "address"
        },
        {
          "internalType": "uint256",
          "name": "totalWei",
          "type": "uint256"
        },
        {
          "internalType": "bool",
          "name": "funded",
          "type": "bool"
        },
        {
          "internalType": "bool",
          "name": "clientSigned",
          "type": "bool"
        },
        {
          "internalType": "bool",
          "name": "providerAccepted",
          "type": "bool"
        },
        {
          "internalType": "uint256",
          "name": "settledCount",
          "type": "uint256"
        }
      ],
      "stateMutability": "view",
      "type": "function"
    },
    {
      "inputs": [
        {
          "internalType": "uint256",
          "name": "projectId",
          "type": "uint256"
        },
        {
          "internalType": "uint256",
          "name": "milestoneIndex",
          "type": "uint256"
        }
      ],
      "name": "releaseMilestone",
      "outputs": [],
      "stateMutability": "nonpayable",
      "type": "function"
    },
    {
      "inputs": [
        {
          "internalType": "uint256",
          "name": "projectId",
          "type": "uint256"
        },
        {
          "internalType": "uint256",
          "name": "milestoneIndex",
          "type": "uint256"
        },
        {
          "internalType": "uint256",
          "name": "providerAmountWei",
          "type": "uint256"
        },
        {
          "internalType": "uint256",
          "name": "clientRefundAmountWei",
          "type": "uint256"
        }
      ],
      "name": "settleMilestone",
      "outputs": [],
      "stateMutability": "nonpayable",
      "type": "function"
    },
    {
      "inputs": [
        {
          "internalType": "uint256",
          "name": "projectId",
          "type": "uint256"
        }
      ],
      "name": "signAndFund",
      "outputs": [],
      "stateMutability": "payable",
      "type": "function"
    }
  ],
  "bytecode": "0x608060405234801561000f575f80fd5b50611fc78061001d5f395ff3fe60806040526004361061006f575f3560e01c80634a7f08121161004d5780634a7f08121461012e578063dbaf09101461014a578063e935b7b114610172578063f4ad46391461019c5761006f565b8063107046bd1461007357806314ccdf9d146100b657806342c549c0146100f2575b5f80fd5b34801561007e575f80fd5b50610099600480360381019061009491906110b1565b6101c4565b6040516100ad989796959493929190611144565b60405180910390f35b3480156100c1575f80fd5b506100dc60048036038101906100d791906112a0565b61026c565b6040516100e99190611357565b60405180910390f35b3480156100fd575f80fd5b50610118600480360381019061011391906110b1565b610807565b6040516101259190611520565b60405180910390f35b610148600480360381019061014391906110b1565b610927565b005b348015610155575f80fd5b50610170600480360381019061016b9190611540565b610aef565b005b34801561017d575f80fd5b50610186610d4e565b6040516101939190611357565b60405180910390f35b3480156101a7575f80fd5b506101c260048036038101906101bd919061157e565b610d53565b005b6001602052805f5260405f205f91509050805f015490806001015f9054906101000a900473ffffffffffffffffffffffffffffffffffffffff1690806002015f9054906101000a900473ffffffffffffffffffffffffffffffffffffffff1690806003015490806004015f9054906101000a900460ff16908060040160019054906101000a900460ff16908060040160029054906101000a900460ff16908060050154905088565b5f8573ffffffffffffffffffffffffffffffffffffffff163373ffffffffffffffffffffffffffffffffffffffff16146102db576040517f08c379a00000000000000000000000000000000000000000000000000000000081526004016102d29061163c565b60405180910390fd5b5f73ffffffffffffffffffffffffffffffffffffffff168773ffffffffffffffffffffffffffffffffffffffff1603610349576040517f08c379a0000000000000000000000000000000000000000000000000000000008152600401610340906116a4565b60405180910390fd5b5f73ffffffffffffffffffffffffffffffffffffffff168673ffffffffffffffffffffffffffffffffffffffff16036103b7576040517f08c379a00000000000000000000000000000000000000000000000000000000081526004016103ae9061170c565b60405180910390fd5b5f85859050116103fc576040517f08c379a00000000000000000000000000000000000000000000000000000000081526004016103f390611774565b60405180910390fd5b828290508585905014610444576040517f08c379a000000000000000000000000000000000000000000000000000000000815260040161043b906117dc565b60405180910390fd5b5f805f90505b848490508110156104e4575f858583818110610469576104686117fa565b5b90506020020135116104b0576040517f08c379a00000000000000000000000000000000000000000000000000000000081526004016104a790611871565b60405180910390fd5b8484828181106104c3576104c26117fa565b5b90506020020135826104d591906118bc565b9150808060010191505061044a565b505f805f8154809291906104f7906118ef565b9190505590506040518061010001604052808b81526020018a73ffffffffffffffffffffffffffffffffffffffff1681526020018973ffffffffffffffffffffffffffffffffffffffff1681526020018381526020015f151581526020015f151581526020016001151581526020015f81525060015f8381526020019081526020015f205f820151815f01556020820151816001015f6101000a81548173ffffffffffffffffffffffffffffffffffffffff021916908373ffffffffffffffffffffffffffffffffffffffff1602179055506040820151816002015f6101000a81548173ffffffffffffffffffffffffffffffffffffffff021916908373ffffffffffffffffffffffffffffffffffffffff160217905550606082015181600301556080820151816004015f6101000a81548160ff02191690831515021790555060a08201518160040160016101000a81548160ff02191690831515021790555060c08201518160040160026101000a81548160ff02191690831515021790555060e082015181600501559050505f5b878790508110156107b15760025f8381526020019081526020015f2060405180606001604052808a8a858181106106c1576106c06117fa565b5b90506020028101906106d39190611942565b8080601f0160208091040260200160405190810160405280939291908181526020018383808284375f81840152601f19601f82011690508083019250505050505050815260200188888581811061072d5761072c6117fa565b5b9050602002013581526020015f1515815250908060018154018082558091505060019003905f5260205f2090600302015f909190919091505f820151815f0190816107789190611bcb565b50602082015181600101556040820151816002015f6101000a81548160ff02191690831515021790555050508080600101915050610687565b508773ffffffffffffffffffffffffffffffffffffffff168a827f2e16fe6185221195ff919455425d57cc20788b7457ce4ab0a9b39ffbbe4e25b260405160405180910390a48092505050979650505050505050565b606060025f8381526020019081526020015f20805480602002602001604051908101604052809291908181526020015f905b8282101561091c578382905f5260205f2090600302016040518060600160405290815f82018054610869906119fe565b80601f0160208091040260200160405190810160405280929190818152602001828054610895906119fe565b80156108e05780601f106108b7576101008083540402835291602001916108e0565b820191905f5260205f20905b8154815290600101906020018083116108c357829003601f168201915b5050505050815260200160018201548152602001600282015f9054906101000a900460ff16151515158152505081526020019060010190610839565b505050509050919050565b5f60015f8381526020019081526020015f209050806001015f9054906101000a900473ffffffffffffffffffffffffffffffffffffffff1673ffffffffffffffffffffffffffffffffffffffff163373ffffffffffffffffffffffffffffffffffffffff16146109cc576040517f08c379a00000000000000000000000000000000000000000000000000000000081526004016109c390611ce4565b60405180910390fd5b806004015f9054906101000a900460ff1615610a1d576040517f08c379a0000000000000000000000000000000000000000000000000000000008152600401610a1490611d4c565b60405180910390fd5b80600301543414610a63576040517f08c379a0000000000000000000000000000000000000000000000000000000008152600401610a5a90611db4565b60405180910390fd5b60018160040160016101000a81548160ff0219169083151502179055506001816004015f6101000a81548160ff0219169083151502179055503373ffffffffffffffffffffffffffffffffffffffff16827f6251418ffd7f504740544ec3d578897633e212c5d658b7dce793c5dc9d2e855e34604051610ae39190611357565b60405180910390a35050565b5f60015f8481526020019081526020015f209050806001015f9054906101000a900473ffffffffffffffffffffffffffffffffffffffff1673ffffffffffffffffffffffffffffffffffffffff163373ffffffffffffffffffffffffffffffffffffffff1614610b94576040517f08c379a0000000000000000000000000000000000000000000000000000000008152600401610b8b90611ce4565b60405180910390fd5b806004015f9054906101000a900460ff16610be4576040517f08c379a0000000000000000000000000000000000000000000000000000000008152600401610bdb90611e1c565b60405180910390fd5b5f60025f8581526020019081526020015f208381548110610c0857610c076117fa565b5b905f5260205f2090600302019050806002015f9054906101000a900460ff1615610c67576040517f08c379a0000000000000000000000000000000000000000000000000000000008152600401610c5e90611e84565b60405180910390fd5b6001816002015f6101000a81548160ff0219169083151502179055506001826005015f828254610c9791906118bc565b92505081905550816002015f9054906101000a900473ffffffffffffffffffffffffffffffffffffffff1673ffffffffffffffffffffffffffffffffffffffff166108fc826001015490811502906040515f60405180830381858888f19350505050158015610d08573d5f803e3d5ffd5b5082847fb9d7d368b7ab8c06b09a194f4290610ce24d03e3ae63e7adc2e129c7eb5d66b183600101545f604051610d40929190611edb565b60405180910390a350505050565b5f5481565b5f60015f8681526020019081526020015f209050806001015f9054906101000a900473ffffffffffffffffffffffffffffffffffffffff1673ffffffffffffffffffffffffffffffffffffffff163373ffffffffffffffffffffffffffffffffffffffff1614610df8576040517f08c379a0000000000000000000000000000000000000000000000000000000008152600401610def90611ce4565b60405180910390fd5b806004015f9054906101000a900460ff16610e48576040517f08c379a0000000000000000000000000000000000000000000000000000000008152600401610e3f90611e1c565b60405180910390fd5b5f60025f8781526020019081526020015f208581548110610e6c57610e6b6117fa565b5b905f5260205f2090600302019050806002015f9054906101000a900460ff1615610ecb576040517f08c379a0000000000000000000000000000000000000000000000000000000008152600401610ec290611e84565b60405180910390fd5b80600101548385610edc91906118bc565b14610f1c576040517f08c379a0000000000000000000000000000000000000000000000000000000008152600401610f1390611f4c565b60405180910390fd5b6001816002015f6101000a81548160ff0219169083151502179055506001826005015f828254610f4c91906118bc565b925050819055505f841115610fc357816002015f9054906101000a900473ffffffffffffffffffffffffffffffffffffffff1673ffffffffffffffffffffffffffffffffffffffff166108fc8590811502906040515f60405180830381858888f19350505050158015610fc1573d5f803e3d5ffd5b505b5f83111561103357816001015f9054906101000a900473ffffffffffffffffffffffffffffffffffffffff1673ffffffffffffffffffffffffffffffffffffffff166108fc8490811502906040515f60405180830381858888f19350505050158015611031573d5f803e3d5ffd5b505b84867fb9d7d368b7ab8c06b09a194f4290610ce24d03e3ae63e7adc2e129c7eb5d66b18686604051611066929190611f6a565b60405180910390a3505050505050565b5f80fd5b5f80fd5b5f819050919050565b6110908161107e565b811461109a575f80fd5b50565b5f813590506110ab81611087565b92915050565b5f602082840312156110c6576110c5611076565b5b5f6110d38482850161109d565b91505092915050565b6110e58161107e565b82525050565b5f73ffffffffffffffffffffffffffffffffffffffff82169050919050565b5f611114826110eb565b9050919050565b6111248161110a565b82525050565b5f8115159050919050565b61113e8161112a565b82525050565b5f610100820190506111585f83018b6110dc565b611165602083018a61111b565b611172604083018961111b565b61117f60608301886110dc565b61118c6080830187611135565b61119960a0830186611135565b6111a660c0830185611135565b6111b360e08301846110dc565b9998505050505050505050565b6111c98161110a565b81146111d3575f80fd5b50565b5f813590506111e4816111c0565b92915050565b5f80fd5b5f80fd5b5f80fd5b5f8083601f84011261120b5761120a6111ea565b5b8235905067ffffffffffffffff811115611228576112276111ee565b5b602083019150836020820283011115611244576112436111f2565b5b9250929050565b5f8083601f8401126112605761125f6111ea565b5b8235905067ffffffffffffffff81111561127d5761127c6111ee565b5b602083019150836020820283011115611299576112986111f2565b5b9250929050565b5f805f805f805f60a0888a0312156112bb576112ba611076565b5b5f6112c88a828b0161109d565b97505060206112d98a828b016111d6565b96505060406112ea8a828b016111d6565b955050606088013567ffffffffffffffff81111561130b5761130a61107a565b5b6113178a828b016111f6565b9450945050608088013567ffffffffffffffff81111561133a5761133961107a565b5b6113468a828b0161124b565b925092505092959891949750929550565b5f60208201905061136a5f8301846110dc565b92915050565b5f81519050919050565b5f82825260208201905092915050565b5f819050602082019050919050565b5f81519050919050565b5f82825260208201905092915050565b5f5b838110156113d05780820151818401526020810190506113b5565b5f8484015250505050565b5f601f19601f8301169050919050565b5f6113f582611399565b6113ff81856113a3565b935061140f8185602086016113b3565b611418816113db565b840191505092915050565b61142c8161107e565b82525050565b61143b8161112a565b82525050565b5f606083015f8301518482035f86015261145b82826113eb565b91505060208301516114706020860182611423565b5060408301516114836040860182611432565b508091505092915050565b5f6114998383611441565b905092915050565b5f602082019050919050565b5f6114b782611370565b6114c1818561137a565b9350836020820285016114d38561138a565b805f5b8581101561150e57848403895281516114ef858261148e565b94506114fa836114a1565b925060208a019950506001810190506114d6565b50829750879550505050505092915050565b5f6020820190508181035f83015261153881846114ad565b905092915050565b5f806040838503121561155657611555611076565b5b5f6115638582860161109d565b92505060206115748582860161109d565b9150509250929050565b5f805f806080858703121561159657611595611076565b5b5f6115a38782880161109d565b94505060206115b48782880161109d565b93505060406115c58782880161109d565b92505060606115d68782880161109d565b91505092959194509250565b5f82825260208201905092915050565b7f4f6e6c792070726f7669646572000000000000000000000000000000000000005f82015250565b5f611626600d836115e2565b9150611631826115f2565b602082019050919050565b5f6020820190508181035f8301526116538161161a565b9050919050565b7f42616420636c69656e74000000000000000000000000000000000000000000005f82015250565b5f61168e600a836115e2565b91506116998261165a565b602082019050919050565b5f6020820190508181035f8301526116bb81611682565b9050919050565b7f4261642070726f766964657200000000000000000000000000000000000000005f82015250565b5f6116f6600c836115e2565b9150611701826116c2565b602082019050919050565b5f6020820190508181035f830152611723816116ea565b9050919050565b7f4e6f206d696c6573746f6e6573000000000000000000000000000000000000005f82015250565b5f61175e600d836115e2565b91506117698261172a565b602082019050919050565b5f6020820190508181035f83015261178b81611752565b9050919050565b7f4c656e677468206d69736d6174636800000000000000000000000000000000005f82015250565b5f6117c6600f836115e2565b91506117d182611792565b602082019050919050565b5f6020820190508181035f8301526117f3816117ba565b9050919050565b7f4e487b71000000000000000000000000000000000000000000000000000000005f52603260045260245ffd5b7f426164206d696c6573746f6e6520616d6f756e740000000000000000000000005f82015250565b5f61185b6014836115e2565b915061186682611827565b602082019050919050565b5f6020820190508181035f8301526118888161184f565b9050919050565b7f4e487b71000000000000000000000000000000000000000000000000000000005f52601160045260245ffd5b5f6118c68261107e565b91506118d18361107e565b92508282019050808211156118e9576118e861188f565b5b92915050565b5f6118f98261107e565b91507fffffffffffffffffffffffffffffffffffffffffffffffffffffffffffffffff820361192b5761192a61188f565b5b600182019050919050565b5f80fd5b5f80fd5b5f80fd5b5f808335600160200384360303811261195e5761195d611936565b5b80840192508235915067ffffffffffffffff8211156119805761197f61193a565b5b60208301925060018202360383131561199c5761199b61193e565b5b509250929050565b7f4e487b71000000000000000000000000000000000000000000000000000000005f52604160045260245ffd5b7f4e487b71000000000000000000000000000000000000000000000000000000005f52602260045260245ffd5b5f6002820490506001821680611a1557607f821691505b602082108103611a2857611a276119d1565b5b50919050565b5f819050815f5260205f209050919050565b5f6020601f8301049050919050565b5f82821b905092915050565b5f60088302611a8a7fffffffffffffffffffffffffffffffffffffffffffffffffffffffffffffffff82611a4f565b611a948683611a4f565b95508019841693508086168417925050509392505050565b5f819050919050565b5f611acf611aca611ac58461107e565b611aac565b61107e565b9050919050565b5f819050919050565b611ae883611ab5565b611afc611af482611ad6565b848454611a5b565b825550505050565b5f90565b611b10611b04565b611b1b818484611adf565b505050565b5b81811015611b3e57611b335f82611b08565b600181019050611b21565b5050565b601f821115611b8357611b5481611a2e565b611b5d84611a40565b81016020851015611b6c578190505b611b80611b7885611a40565b830182611b20565b50505b505050565b5f82821c905092915050565b5f611ba35f1984600802611b88565b1980831691505092915050565b5f611bbb8383611b94565b9150826002028217905092915050565b611bd482611399565b67ffffffffffffffff811115611bed57611bec6119a4565b5b611bf782546119fe565b611c02828285611b42565b5f60209050601f831160018114611c33575f8415611c21578287015190505b611c2b8582611bb0565b865550611c92565b601f198416611c4186611a2e565b5f5b82811015611c6857848901518255600182019150602085019450602081019050611c43565b86831015611c855784890151611c81601f891682611b94565b8355505b6001600288020188555050505b505050505050565b7f4f6e6c7920636c69656e740000000000000000000000000000000000000000005f82015250565b5f611cce600b836115e2565b9150611cd982611c9a565b602082019050919050565b5f6020820190508181035f830152611cfb81611cc2565b9050919050565b7f416c72656164792066756e6465640000000000000000000000000000000000005f82015250565b5f611d36600e836115e2565b9150611d4182611d02565b602082019050919050565b5f6020820190508181035f830152611d6381611d2a565b9050919050565b7f57726f6e672045544820616d6f756e74000000000000000000000000000000005f82015250565b5f611d9e6010836115e2565b9150611da982611d6a565b602082019050919050565b5f6020820190508181035f830152611dcb81611d92565b9050919050565b7f4e6f742066756e646564000000000000000000000000000000000000000000005f82015250565b5f611e06600a836115e2565b9150611e1182611dd2565b602082019050919050565b5f6020820190508181035f830152611e3381611dfa565b9050919050565b7f416c726561647920736574746c656400000000000000000000000000000000005f82015250565b5f611e6e600f836115e2565b9150611e7982611e3a565b602082019050919050565b5f6020820190508181035f830152611e9b81611e62565b9050919050565b5f819050919050565b5f611ec5611ec0611ebb84611ea2565b611aac565b61107e565b9050919050565b611ed581611eab565b82525050565b5f604082019050611eee5f8301856110dc565b611efb6020830184611ecc565b9392505050565b7f416d6f756e7473206d757374206d61746368206d696c6573746f6e65000000005f82015250565b5f611f36601c836115e2565b9150611f4182611f02565b602082019050919050565b5f6020820190508181035f830152611f6381611f2a565b9050919050565b5f604082019050611f7d5f8301856110dc565b611f8a60208301846110dc565b939250505056fea2646970667358221220793000faeca361118ab209e687143428e23b90894b059d5bfcefd56cae317d1164736f6c63430008180033",
  "linkReferences": {},
  "deployedLinkReferences": {},
  "immutableReferences": {},
  "inputSourceName": "project/contracts/ServiceEscrow.sol",
  "buildInfoId": "solc-0_8_24-601abe45806ad39a4dddb5adfcd1f21fde0d36f9"
}