{
  "_format": "hh3-artifact-1",
  "contractName": "MilestoneEscrow",
  "sourceName": "contracts/MilestoneEscrow-temp.sol",
  "abi": [
    {
      "anonymous": false,
      "inputs": [
        {
          "indexed": true,
          "internalType": "uint256",
          "name": "projectId",
          "type": "uint256"
        },
        {
          "indexed": true,
          "internalType": "uint256",
          "name": "milestoneIndex",
          "type": "uint256"
        },
        {
          "indexed": false,
          "internalType": "uint256",
          "name": "amountWei",
          "type": "uint256"
        }
      ],
      "name": "MilestoneReleased",
      "type": "event"
    },
    {
      "anonymous": false,
      "inputs": [
        {
          "indexed": true,
          "internalType": "uint256",
          "name": "projectId",
          "type": "uint256"
        },
        {
          "indexed": true,
          "internalType": "address",
          "name": "client",
          "type": "address"
        },
        {
          "indexed": true,
          "internalType": "address",
          "name": "provider",
          "type": "address"
        },
        {
          "indexed": false,
          "internalType": "uint256",
          "name": "totalAmountWei",
          "type": "uint256"
        },
        {
          "indexed": false,
          "internalType": "uint256",
          "name": "milestoneCount",
          "type": "uint256"
        },
        {
          "indexed": false,
          "internalType": "uint256",
          "name": "milestoneAmountWei",
          "type": "uint256"
        }
      ],
      "name": "ProjectCreated",
      "type": "event"
    },
    {
      "anonymous": false,
      "inputs": [
        {
          "indexed": true,
          "internalType": "uint256",
          "name": "projectId",
          "type": "uint256"
        },
        {
          "indexed": false,
          "internalType": "uint256",
          "name": "totalAmountWei",
          "type": "uint256"
        }
      ],
      "name": "ProjectFunded",
      "type": "event"
    },
    {
      "inputs": [
        {
          "internalType": "address",
          "name": "provider",
          "type": "address"
        },
        {
          "internalType": "uint256",
          "name": "milestoneCount",
          "type": "uint256"
        }
      ],
      "name": "createProject",
      "outputs": [
        {
          "internalType": "uint256",
          "name": "",
          "type": "uint256"
        }
      ],
      "stateMutability": "payable",
      "type": "function"
    },
    {
      "inputs": [
        {
          "internalType": "uint256",
          "name": "projectId",
          "type": "uint256"
        }
      ],
      "name": "getProject",
      "outputs": [
        {
          "internalType": "address",
          "name": "client",
          "type": "address"
        },
        {
          "internalType": "address",
          "name": "provider",
          "type": "address"
        },
        {
          "internalType": "uint256",
          "name": "totalAmountWei",
          "type": "uint256"
        },
        {
          "internalType": "uint256",
          "name": "milestoneCount",
          "type": "uint256"
        },
        {
          "internalType": "uint256",
          "name": "milestoneAmountWei",
          "type": "uint256"
        },
        {
          "internalType": "uint256",
          "name": "releasedCount",
          "type": "uint256"
        },
        {
          "internalType": "bool",
          "name": "funded",
          "type": "bool"
        }
      ],
      "stateMutability": "view",
      "type": "function"
    },
    {
      "inputs": [
        {
          "internalType": "uint256",
          "name": "",
          "type": "uint256"
        },
        {
          "internalType": "uint256",
          "name": "",
          "type": "uint256"
        }
      ],
      "name": "milestoneReleased",
      "outputs": [
        {
          "internalType": "bool",
          "name": "",
          "type": "bool"
        }
      ],
      "stateMutability": "view",
      "type": "function"
    },
    {
      "inputs": [],
      "name": "projectCounter",
      "outputs": [
        {
          "internalType": "uint256",
          "name": "",
          "type": "uint256"
        }
      ],
      "stateMutability": "view",
      "type": "function"
    },
    {
      "inputs": [
        {
          "internalType": "uint256",
          "name": "",
          "type": "uint256"
        }
      ],
      "name": "projects",
      "outputs": [
        {
          "internalType": "address",
          "name": "client",
          "type": "address"
        },
        {
          "internalType": "address",
          "name": "provider",
          "type": "address"
        },
        {
          "internalType": "uint256",
          "name": "totalAmountWei",
          "type": "uint256"
        },
        {
          "internalType": "uint256",
          "name": "milestoneCount",
          "type": "uint256"
        },
        {
          "internalType": "uint256",
          "name": "milestoneAmountWei",
          "type": "uint256"
        },
        {
          "internalType": "uint256",
          "name": "releasedCount",
          "type": "uint256"
        },
        {
          "internalType": "bool",
          "name": "funded",
          "type": "bool"
        },
        {
          "internalType": "bool",
          "name": "exists",
          "type": "bool"
        }
      ],
      "stateMutability": "view",
      "type": "function"
    },
    {
      "inputs": [
        {
          "internalType": "uint256",
          "name": "projectId",
          "type": "uint256"
        },
        {
          "internalType": "uint256",
          "name": "milestoneIndex",
          "type": "uint256"
        }
      ],
      "name": "releaseMilestone",
      "outputs": [],
      "stateMutability": "nonpayable",
      "type": "function"
    }
  ],
  "bytecode": "0x608060405234801561000f575f80fd5b506114598061001d5f395ff3fe608060405260043610610054575f3560e01c8063107046bd1461005857806334ae05611461009b578063dbaf0910146100d7578063e82d6572146100ff578063f0f3f2c81461012f578063f8a518ed14610171575b5f80fd5b348015610063575f80fd5b5061007e60048036038101906100799190610bbe565b61019b565b604051610092989796959493929190610c51565b60405180910390f35b3480156100a6575f80fd5b506100c160048036038101906100bc9190610ccd565b610236565b6040516100ce9190610d0b565b60405180910390f35b3480156100e2575f80fd5b506100fd60048036038101906100f89190610ccd565b610260565b005b61011960048036038101906101149190610d4e565b6105df565b6040516101269190610d8c565b60405180910390f35b34801561013a575f80fd5b5061015560048036038101906101509190610bbe565b6109d5565b6040516101689796959493929190610da5565b60405180910390f35b34801561017c575f80fd5b50610185610b82565b6040516101929190610d8c565b60405180910390f35b6001602052805f5260405f205f91509050805f015f9054906101000a900473ffffffffffffffffffffffffffffffffffffffff1690806001015f9054906101000a900473ffffffffffffffffffffffffffffffffffffffff1690806002015490806003015490806004015490806005015490806006015f9054906101000a900460ff16908060060160019054906101000a900460ff16905088565b6002602052815f5260405f20602052805f5260405f205f915091509054906101000a900460ff1681565b8160015f8281526020019081526020015f2060060160019054906101000a900460ff166102c2576040517f08c379a00000000000000000000000000000000000000000000000000000000081526004016102b990610e6c565b60405180910390fd5b60015f8281526020019081526020015f205f015f9054906101000a900473ffffffffffffffffffffffffffffffffffffffff1673ffffffffffffffffffffffffffffffffffffffff163373ffffffffffffffffffffffffffffffffffffffff1614610362576040517f08c379a000000000000000000000000000000000000000000000000000000000815260040161035990610ed4565b60405180910390fd5b5f60015f8581526020019081526020015f209050806006015f9054906101000a900460ff166103c6576040517f08c379a00000000000000000000000000000000000000000000000000000000081526004016103bd90610f3c565b60405180910390fd5b8060030154831061040c576040517f08c379a000000000000000000000000000000000000000000000000000000000815260040161040390610fa4565b60405180910390fd5b60025f8581526020019081526020015f205f8481526020019081526020015f205f9054906101000a900460ff1615610479576040517f08c379a00000000000000000000000000000000000000000000000000000000081526004016104709061100c565b60405180910390fd5b600160025f8681526020019081526020015f205f8581526020019081526020015f205f6101000a81548160ff0219169083151502179055506001816005015f8282546104c59190611057565b925050819055505f816001015f9054906101000a900473ffffffffffffffffffffffffffffffffffffffff1673ffffffffffffffffffffffffffffffffffffffff168260040154604051610518906110b7565b5f6040518083038185875af1925050503d805f8114610552576040519150601f19603f3d011682016040523d82523d5f602084013e610557565b606091505b505090508061059b576040517f08c379a000000000000000000000000000000000000000000000000000000000815260040161059290611115565b60405180910390fd5b83857fd33fcd27cbfb73a2d9058c968b560ccb306500bf536133802048489ecc7355e984600401546040516105d09190610d8c565b60405180910390a35050505050565b5f8073ffffffffffffffffffffffffffffffffffffffff168373ffffffffffffffffffffffffffffffffffffffff160361064e576040517f08c379a00000000000000000000000000000000000000000000000000000000081526004016106459061117d565b60405180910390fd5b3373ffffffffffffffffffffffffffffffffffffffff168373ffffffffffffffffffffffffffffffffffffffff16036106bc576040517f08c379a00000000000000000000000000000000000000000000000000000000081526004016106b3906111e5565b60405180910390fd5b5f82116106fe576040517f08c379a00000000000000000000000000000000000000000000000000000000081526004016106f59061124d565b60405180910390fd5b5f3411610740576040517f08c379a0000000000000000000000000000000000000000000000000000000008152600401610737906112b5565b60405180910390fd5b5f823461074d9190611300565b1461078d576040517f08c379a0000000000000000000000000000000000000000000000000000000008152600401610784906113a0565b60405180910390fd5b60015f8082825461079e9190611057565b925050819055505f82346107b291906113be565b90506040518061010001604052803373ffffffffffffffffffffffffffffffffffffffff1681526020018573ffffffffffffffffffffffffffffffffffffffff1681526020013481526020018481526020018281526020015f81526020016001151581526020016001151581525060015f805481526020019081526020015f205f820151815f015f6101000a81548173ffffffffffffffffffffffffffffffffffffffff021916908373ffffffffffffffffffffffffffffffffffffffff1602179055506020820151816001015f6101000a81548173ffffffffffffffffffffffffffffffffffffffff021916908373ffffffffffffffffffffffffffffffffffffffff16021790555060408201518160020155606082015181600301556080820151816004015560a0820151816005015560c0820151816006015f6101000a81548160ff02191690831515021790555060e08201518160060160016101000a81548160ff0219169083151502179055509050508373ffffffffffffffffffffffffffffffffffffffff163373ffffffffffffffffffffffffffffffffffffffff165f547f39d740c2a801cd526991f897ce41f8fb74a25057b9486bdeb4a44c1622e939ad348786604051610989939291906113ee565b60405180910390a45f547f26130d0cd3f6aa101d05e4a4f2ff016fd5b934363d17bdd03ff5dc03ec5934a9346040516109c29190610d8c565b60405180910390a25f5491505092915050565b5f805f805f805f8060015f8a81526020019081526020015f20604051806101000160405290815f82015f9054906101000a900473ffffffffffffffffffffffffffffffffffffffff1673ffffffffffffffffffffffffffffffffffffffff1673ffffffffffffffffffffffffffffffffffffffff168152602001600182015f9054906101000a900473ffffffffffffffffffffffffffffffffffffffff1673ffffffffffffffffffffffffffffffffffffffff1673ffffffffffffffffffffffffffffffffffffffff16815260200160028201548152602001600382015481526020016004820154815260200160058201548152602001600682015f9054906101000a900460ff161515151581526020016006820160019054906101000a900460ff16151515158152505090508060e00151610b46576040517f08c379a0000000000000000000000000000000000000000000000000000000008152600401610b3d90610e6c565b60405180910390fd5b805f015181602001518260400151836060015184608001518560a001518660c00151975097509750975097509750975050919395979092949650565b5f5481565b5f80fd5b5f819050919050565b610b9d81610b8b565b8114610ba7575f80fd5b50565b5f81359050610bb881610b94565b92915050565b5f60208284031215610bd357610bd2610b87565b5b5f610be084828501610baa565b91505092915050565b5f73ffffffffffffffffffffffffffffffffffffffff82169050919050565b5f610c1282610be9565b9050919050565b610c2281610c08565b82525050565b610c3181610b8b565b82525050565b5f8115159050919050565b610c4b81610c37565b82525050565b5f61010082019050610c655f83018b610c19565b610c72602083018a610c19565b610c7f6040830189610c28565b610c8c6060830188610c28565b610c996080830187610c28565b610ca660a0830186610c28565b610cb360c0830185610c42565b610cc060e0830184610c42565b9998505050505050505050565b5f8060408385031215610ce357610ce2610b87565b5b5f610cf085828601610baa565b9250506020610d0185828601610baa565b9150509250929050565b5f602082019050610d1e5f830184610c42565b92915050565b610d2d81610c08565b8114610d37575f80fd5b50565b5f81359050610d4881610d24565b92915050565b5f8060408385031215610d6457610d63610b87565b5b5f610d7185828601610d3a565b9250506020610d8285828601610baa565b9150509250929050565b5f602082019050610d9f5f830184610c28565b92915050565b5f60e082019050610db85f83018a610c19565b610dc56020830189610c19565b610dd26040830188610c28565b610ddf6060830187610c28565b610dec6080830186610c28565b610df960a0830185610c28565b610e0660c0830184610c42565b98975050505050505050565b5f82825260208201905092915050565b7f50726f6a65637420646f6573206e6f74206578697374000000000000000000005f82015250565b5f610e56601683610e12565b9150610e6182610e22565b602082019050919050565b5f6020820190508181035f830152610e8381610e4a565b9050919050565b7f4f6e6c7920636c69656e742063616e2063616c6c0000000000000000000000005f82015250565b5f610ebe601483610e12565b9150610ec982610e8a565b602082019050919050565b5f6020820190508181035f830152610eeb81610eb2565b9050919050565b7f50726f6a656374206973206e6f742066756e64656400000000000000000000005f82015250565b5f610f26601583610e12565b9150610f3182610ef2565b602082019050919050565b5f6020820190508181035f830152610f5381610f1a565b9050919050565b7f496e76616c6964206d696c6573746f6e6520696e6465780000000000000000005f82015250565b5f610f8e601783610e12565b9150610f9982610f5a565b602082019050919050565b5f6020820190508181035f830152610fbb81610f82565b9050919050565b7f4d696c6573746f6e6520616c72656164792072656c65617365640000000000005f82015250565b5f610ff6601a83610e12565b915061100182610fc2565b602082019050919050565b5f6020820190508181035f83015261102381610fea565b9050919050565b7f4e487b71000000000000000000000000000000000000000000000000000000005f52601160045260245ffd5b5f61106182610b8b565b915061106c83610b8b565b92508282019050808211156110845761108361102a565b5b92915050565b5f81905092915050565b50565b5f6110a25f8361108a565b91506110ad82611094565b5f82019050919050565b5f6110c182611097565b9150819050919050565b7f455448207472616e73666572206661696c6564000000000000000000000000005f82015250565b5f6110ff601383610e12565b915061110a826110cb565b602082019050919050565b5f6020820190508181035f83015261112c816110f3565b9050919050565b7f496e76616c69642070726f7669646572000000000000000000000000000000005f82015250565b5f611167601083610e12565b915061117282611133565b602082019050919050565b5f6020820190508181035f8301526111948161115b565b9050919050565b7f436c69656e7420616e642070726f7669646572206d75737420646966666572005f82015250565b5f6111cf601f83610e12565b91506111da8261119b565b602082019050919050565b5f6020820190508181035f8301526111fc816111c3565b9050919050565b7f4d696c6573746f6e6520636f756e74206d757374206265203e203000000000005f82015250565b5f611237601b83610e12565b915061124282611203565b602082019050919050565b5f6020820190508181035f8301526112648161122b565b9050919050565b7f46756e64696e67206973207265717569726564000000000000000000000000005f82015250565b5f61129f601383610e12565b91506112aa8261126b565b602082019050919050565b5f6020820190508181035f8301526112cc81611293565b9050919050565b7f4e487b71000000000000000000000000000000000000000000000000000000005f52601260045260245ffd5b5f61130a82610b8b565b915061131583610b8b565b925082611325576113246112d3565b5b828206905092915050565b7f455448206d7573742064697669646520657175616c6c79206279206d696c65735f8201527f746f6e6573000000000000000000000000000000000000000000000000000000602082015250565b5f61138a602583610e12565b915061139582611330565b604082019050919050565b5f6020820190508181035f8301526113b78161137e565b9050919050565b5f6113c882610b8b565b91506113d383610b8b565b9250826113e3576113e26112d3565b5b828204905092915050565b5f6060820190506114015f830186610c28565b61140e6020830185610c28565b61141b6040830184610c28565b94935050505056fea26469706673582212203c56163dfa6812e5887f239275a77d3e14e62b42a636217c29183922ae93df7d64736f6c63430008180033",
  "linkReferences": {},
  "deployedLinkReferences": {},
  "immutableReferences": {},
  "inputSourceName": "project/contracts/MilestoneEscrow-temp.sol",
  "buildInfoId": "solc-0_8_24-b8a6c1657f6f773cfaeedc423517fc3d5bc2449c"
}