{"project/contracts/MilestoneEscrow-temp.sol":{"MilestoneEscrow":{"abi":[{"anonymous":false,"inputs":[{"indexed":true,"internalType":"uint256","name":"projectId","type":"uint256"},{"indexed":true,"internalType":"uint256","name":"milestoneIndex","type":"uint256"},{"indexed":false,"internalType":"uint256","name":"amountWei","type":"uint256"}],"name":"MilestoneReleased","type":"event"},{"anonymous":false,"inputs":[{"indexed":true,"internalType":"uint256","name":"projectId","type":"uint256"},{"indexed":true,"internalType":"address","name":"client","type":"address"},{"indexed":true,"internalType":"address","name":"provider","type":"address"},{"indexed":false,"internalType":"uint256","name":"totalAmountWei","type":"uint256"},{"indexed":false,"internalType":"uint256","name":"milestoneCount","type":"uint256"},{"indexed":false,"internalType":"uint256","name":"milestoneAmountWei","type":"uint256"}],"name":"ProjectCreated","type":"event"},{"anonymous":false,"inputs":[{"indexed":true,"internalType":"uint256","name":"projectId","type":"uint256"},{"indexed":false,"internalType":"uint256","name":"totalAmountWei","type":"uint256"}],"name":"ProjectFunded","type":"event"},{"inputs":[{"internalType":"address","name":"provider","type":"address"},{"internalType":"uint256","name":"milestoneCount","type":"uint256"}],"name":"createProject","outputs":[{"internalType":"uint256","name":"","type":"uint256"}],"stateMutability":"payable","type":"function"},{"inputs":[{"internalType":"uint256","name":"projectId","type":"uint256"}],"name":"getProject","outputs":[{"internalType":"address","name":"client","type":"address"},{"internalType":"address","name":"provider","type":"address"},{"internalType":"uint256","name":"totalAmountWei","type":"uint256"},{"internalType":"uint256","name":"milestoneCount","type":"uint256"},{"internalType":"uint256","name":"milestoneAmountWei","type":"uint256"},{"internalType":"uint256","name":"releasedCount","type":"uint256"},{"internalType":"bool","name":"funded","type":"bool"}],"stateMutability":"view","type":"function"},{"inputs":[{"internalType":"uint256","name":"","type":"uint256"},{"internalType":"uint256","name":"","type":"uint256"}],"name":"milestoneReleased","outputs":[{"internalType":"bool","name":"","type":"bool"}],"stateMutability":"view","type":"function"},{"inputs":[],"name":"projectCounter","outputs":[{"internalType":"uint256","name":"","type":"uint256"}],"stateMutability":"view","type":"function"},{"inputs":[{"internalType":"uint256","name":"","type":"uint256"}],"name":"projects","outputs":[{"internalType":"address","name":"client","type":"address"},{"internalType":"address","name":"provider","type":"address"},{"internalType":"uint256","name":"totalAmountWei","type":"uint256"},{"internalType":"uint256","name":"milestoneCount","type":"uint256"},{"internalType":"uint256","name":"milestoneAmountWei","type":"uint256"},{"internalType":"uint256","name":"releasedCount","type":"uint256"},{"internalType":"bool","name":"funded","type":"bool"},{"internalType":"bool","name":"exists","type":"bool"}],"stateMutability":"view","type":"function"},{"inputs":[{"internalType":"uint256","name":"projectId","type":"uint256"},{"internalType":"uint256","name":"milestoneIndex","type":"uint256"}],"name":"releaseMilestone","outputs":[],"stateMutability":"nonpayable","type":"function"}],"evm":{"bytecode":{"linkReferences":{},"object":"608060405234801561000f575f80fd5b506114598061001d5f395ff3fe608060405260043610610054575f3560e01c8063107046bd1461005857806334ae05611461009b578063dbaf0910146100d7578063e82d6572146100ff578063f0f3f2c81461012f578063f8a518ed14610171575b5f80fd5b348015610063575f80fd5b5061007e60048036038101906100799190610bbe565b61019b565b604051610092989796959493929190610c51565b60405180910390f35b3480156100a6575f80fd5b506100c160048036038101906100bc9190610ccd565b610236565b6040516100ce9190610d0b565b60405180910390f35b3480156100e2575f80fd5b506100fd60048036038101906100f89190610ccd565b610260565b005b61011960048036038101906101149190610d4e565b6105df565b6040516101269190610d8c565b60405180910390f35b34801561013a575f80fd5b5061015560048036038101906101509190610bbe565b6109d5565b6040516101689796959493929190610da5565b60405180910390f35b34801561017c575f80fd5b50610185610b82565b6040516101929190610d8c565b60405180910390f35b6001602052805f5260405f205f91509050805f015f9054906101000a900473ffffffffffffffffffffffffffffffffffffffff1690806001015f9054906101000a900473ffffffffffffffffffffffffffffffffffffffff1690806002015490806003015490806004015490806005015490806006015f9054906101000a900460ff16908060060160019054906101000a900460ff16905088565b6002602052815f5260405f20602052805f5260405f205f915091509054906101000a900460ff1681565b8160015f8281526020019081526020015f2060060160019054906101000a900460ff166102c2576040517f08c379a00000000000000000000000000000000000000000000000000000000081526004016102b990610e6c565b60405180910390fd5b60015f8281526020019081526020015f205f015f9054906101000a900473ffffffffffffffffffffffffffffffffffffffff1673ffffffffffffffffffffffffffffffffffffffff163373ffffffffffffffffffffffffffffffffffffffff1614610362576040517f08c379a000000000000000000000000000000000000000000000000000000000815260040161035990610ed4565b60405180910390fd5b5f60015f8581526020019081526020015f209050806006015f9054906101000a900460ff166103c6576040517f08c379a00000000000000000000000000000000000000000000000000000000081526004016103bd90610f3c565b60405180910390fd5b8060030154831061040c576040517f08c379a000000000000000000000000000000000000000000000000000000000815260040161040390610fa4565b60405180910390fd5b60025f8581526020019081526020015f205f8481526020019081526020015f205f9054906101000a900460ff1615610479576040517f08c379a00000000000000000000000000000000000000000000000000000000081526004016104709061100c565b60405180910390fd5b600160025f8681526020019081526020015f205f8581526020019081526020015f205f6101000a81548160ff0219169083151502179055506001816005015f8282546104c59190611057565b925050819055505f816001015f9054906101000a900473ffffffffffffffffffffffffffffffffffffffff1673ffffffffffffffffffffffffffffffffffffffff168260040154604051610518906110b7565b5f6040518083038185875af1925050503d805f8114610552576040519150601f19603f3d011682016040523d82523d5f602084013e610557565b606091505b505090508061059b576040517f08c379a000000000000000000000000000000000000000000000000000000000815260040161059290611115565b60405180910390fd5b83857fd33fcd27cbfb73a2d9058c968b560ccb306500bf536133802048489ecc7355e984600401546040516105d09190610d8c565b60405180910390a35050505050565b5f8073ffffffffffffffffffffffffffffffffffffffff168373ffffffffffffffffffffffffffffffffffffffff160361064e576040517f08c379a00000000000000000000000000000000000000000000000000000000081526004016106459061117d565b60405180910390fd5b3373ffffffffffffffffffffffffffffffffffffffff168373ffffffffffffffffffffffffffffffffffffffff16036106bc576040517f08c379a00000000000000000000000000000000000000000000000000000000081526004016106b3906111e5565b60405180910390fd5b5f82116106fe576040517f08c379a00000000000000000000000000000000000000000000000000000000081526004016106f59061124d565b60405180910390fd5b5f3411610740576040517f08c379a0000000000000000000000000000000000000000000000000000000008152600401610737906112b5565b60405180910390fd5b5f823461074d9190611300565b1461078d576040517f08c379a0000000000000000000000000000000000000000000000000000000008152600401610784906113a0565b60405180910390fd5b60015f8082825461079e9190611057565b925050819055505f82346107b291906113be565b90506040518061010001604052803373ffffffffffffffffffffffffffffffffffffffff1681526020018573ffffffffffffffffffffffffffffffffffffffff1681526020013481526020018481526020018281526020015f81526020016001151581526020016001151581525060015f805481526020019081526020015f205f820151815f015f6101000a81548173ffffffffffffffffffffffffffffffffffffffff021916908373ffffffffffffffffffffffffffffffffffffffff1602179055506020820151816001015f6101000a81548173ffffffffffffffffffffffffffffffffffffffff021916908373ffffffffffffffffffffffffffffffffffffffff16021790555060408201518160020155606082015181600301556080820151816004015560a0820151816005015560c0820151816006015f6101000a81548160ff02191690831515021790555060e08201518160060160016101000a81548160ff0219169083151502179055509050508373ffffffffffffffffffffffffffffffffffffffff163373ffffffffffffffffffffffffffffffffffffffff165f547f39d740c2a801cd526991f897ce41f8fb74a25057b9486bdeb4a44c1622e939ad348786604051610989939291906113ee565b60405180910390a45f547f26130d0cd3f6aa101d05e4a4f2ff016fd5b934363d17bdd03ff5dc03ec5934a9346040516109c29190610d8c565b60405180910390a25f5491505092915050565b5f805f805f805f8060015f8a81526020019081526020015f20604051806101000160405290815f82015f9054906101000a900473ffffffffffffffffffffffffffffffffffffffff1673ffffffffffffffffffffffffffffffffffffffff1673ffffffffffffffffffffffffffffffffffffffff168152602001600182015f9054906101000a900473ffffffffffffffffffffffffffffffffffffffff1673ffffffffffffffffffffffffffffffffffffffff1673ffffffffffffffffffffffffffffffffffffffff16815260200160028201548152602001600382015481526020016004820154815260200160058201548152602001600682015f9054906101000a900460ff161515151581526020016006820160019054906101000a900460ff16151515158152505090508060e00151610b46576040517f08c379a0000000000000000000000000000000000000000000000000000000008152600401610b3d90610e6c565b60405180910390fd5b805f015181602001518260400151836060015184608001518560a001518660c00151975097509750975097509750975050919395979092949650565b5f5481565b5f80fd5b5f819050919050565b610b9d81610b8b565b8114610ba7575f80fd5b50565b5f81359050610bb881610b94565b92915050565b5f60208284031215610bd357610bd2610b87565b5b5f610be084828501610baa565b91505092915050565b5f73ffffffffffffffffffffffffffffffffffffffff82169050919050565b5f610c1282610be9565b9050919050565b610c2281610c08565b82525050565b610c3181610b8b565b82525050565b5f8115159050919050565b610c4b81610c37565b82525050565b5f61010082019050610c655f83018b610c19565b610c72602083018a610c19565b610c7f6040830189610c28565b610c8c6060830188610c28565b610c996080830187610c28565b610ca660a0830186610c28565b610cb360c0830185610c42565b610cc060e0830184610c42565b9998505050505050505050565b5f8060408385031215610ce357610ce2610b87565b5b5f610cf085828601610baa565b9250506020610d0185828601610baa565b9150509250929050565b5f602082019050610d1e5f830184610c42565b92915050565b610d2d81610c08565b8114610d37575f80fd5b50565b5f81359050610d4881610d24565b92915050565b5f8060408385031215610d6457610d63610b87565b5b5f610d7185828601610d3a565b9250506020610d8285828601610baa565b9150509250929050565b5f602082019050610d9f5f830184610c28565b92915050565b5f60e082019050610db85f83018a610c19565b610dc56020830189610c19565b610dd26040830188610c28565b610ddf6060830187610c28565b610dec6080830186610c28565b610df960a0830185610c28565b610e0660c0830184610c42565b98975050505050505050565b5f82825260208201905092915050565b7f50726f6a65637420646f6573206e6f74206578697374000000000000000000005f82015250565b5f610e56601683610e12565b9150610e6182610e22565b602082019050919050565b5f6020820190508181035f830152610e8381610e4a565b9050919050565b7f4f6e6c7920636c69656e742063616e2063616c6c0000000000000000000000005f82015250565b5f610ebe601483610e12565b9150610ec982610e8a565b602082019050919050565b5f6020820190508181035f830152610eeb81610eb2565b9050919050565b7f50726f6a656374206973206e6f742066756e64656400000000000000000000005f82015250565b5f610f26601583610e12565b9150610f3182610ef2565b602082019050919050565b5f6020820190508181035f830152610f5381610f1a565b9050919050565b7f496e76616c6964206d696c6573746f6e6520696e6465780000000000000000005f82015250565b5f610f8e601783610e12565b9150610f9982610f5a565b602082019050919050565b5f6020820190508181035f830152610fbb81610f82565b9050919050565b7f4d696c6573746f6e6520616c72656164792072656c65617365640000000000005f82015250565b5f610ff6601a83610e12565b915061100182610fc2565b602082019050919050565b5f6020820190508181035f83015261102381610fea565b9050919050565b7f4e487b71000000000000000000000000000000000000000000000000000000005f52601160045260245ffd5b5f61106182610b8b565b915061106c83610b8b565b92508282019050808211156110845761108361102a565b5b92915050565b5f81905092915050565b50565b5f6110a25f8361108a565b91506110ad82611094565b5f82019050919050565b5f6110c182611097565b9150819050919050565b7f455448207472616e73666572206661696c6564000000000000000000000000005f82015250565b5f6110ff601383610e12565b915061110a826110cb565b602082019050919050565b5f6020820190508181035f83015261112c816110f3565b9050919050565b7f496e76616c69642070726f7669646572000000000000000000000000000000005f82015250565b5f611167601083610e12565b915061117282611133565b602082019050919050565b5f6020820190508181035f8301526111948161115b565b9050919050565b7f436c69656e7420616e642070726f7669646572206d75737420646966666572005f82015250565b5f6111cf601f83610e12565b91506111da8261119b565b602082019050919050565b5f6020820190508181035f8301526111fc816111c3565b9050919050565b7f4d696c6573746f6e6520636f756e74206d757374206265203e203000000000005f82015250565b5f611237601b83610e12565b915061124282611203565b602082019050919050565b5f6020820190508181035f8301526112648161122b565b9050919050565b7f46756e64696e67206973207265717569726564000000000000000000000000005f82015250565b5f61129f601383610e12565b91506112aa8261126b565b602082019050919050565b5f6020820190508181035f8301526112cc81611293565b9050919050565b7f4e487b71000000000000000000000000000000000000000000000000000000005f52601260045260245ffd5b5f61130a82610b8b565b915061131583610b8b565b925082611325576113246112d3565b5b828206905092915050565b7f455448206d7573742064697669646520657175616c6c79206279206d696c65735f8201527f746f6e6573000000000000000000000000000000000000000000000000000000602082015250565b5f61138a602583610e12565b915061139582611330565b604082019050919050565b5f6020820190508181035f8301526113b78161137e565b9050919050565b5f6113c882610b8b565b91506113d383610b8b565b9250826113e3576113e26112d3565b5b828204905092915050565b5f6060820190506114015f830186610c28565b61140e6020830185610c28565b61141b6040830184610c28565b94935050505056fea26469706673582212203c56163dfa6812e5887f239275a77d3e14e62b42a636217c29183922ae93df7d64736f6c63430008180033","opcodes":"PUSH1 0x80 PUSH1 0x40 MSTORE CALLVALUE DUP1 ISZERO PUSH2 0xF JUMPI PUSH0 DUP1 REVERT JUMPDEST POP PUSH2 0x1459 DUP1 PUSH2 0x1D PUSH0 CODECOPY PUSH0 RETURN INVALID PUSH1 0x80 PUSH1 0x40 MSTORE PUSH1 0x4 CALLDATASIZE LT PUSH2 0x54 JUMPI PUSH0 CALLDATALOAD PUSH1 0xE0 SHR DUP1 PUSH4 0x107046BD EQ PUSH2 0x58 JUMPI DUP1 PUSH4 0x34AE0561 EQ PUSH2 0x9B JUMPI DUP1 PUSH4 0xDBAF0910 EQ PUSH2 0xD7 JUMPI DUP1 PUSH4 0xE82D6572 EQ PUSH2 0xFF JUMPI DUP1 PUSH4 0xF0F3F2C8 EQ PUSH2 0x12F JUMPI DUP1 PUSH4 0xF8A518ED EQ PUSH2 0x171 JUMPI JUMPDEST PUSH0 DUP1 REVERT JUMPDEST CALLVALUE DUP1 ISZERO PUSH2 0x63 JUMPI PUSH0 DUP1 REVERT JUMPDEST POP PUSH2 0x7E PUSH1 0x4 DUP1 CALLDATASIZE SUB DUP2 ADD SWAP1 PUSH2 0x79 SWAP2 SWAP1 PUSH2 0xBBE JUMP JUMPDEST PUSH2 0x19B JUMP JUMPDEST PUSH1 0x40 MLOAD PUSH2 0x92 SWAP9 SWAP8 SWAP7 SWAP6 SWAP5 SWAP4 SWAP3 SWAP2 SWAP1 PUSH2 0xC51 JUMP JUMPDEST PUSH1 0x40 MLOAD DUP1 SWAP2 SUB SWAP1 RETURN JUMPDEST CALLVALUE DUP1 ISZERO PUSH2 0xA6 JUMPI PUSH0 DUP1 REVERT JUMPDEST POP PUSH2 0xC1 PUSH1 0x4 DUP1 CALLDATASIZE SUB DUP2 ADD SWAP1 PUSH2 0xBC SWAP2 SWAP1 PUSH2 0xCCD JUMP JUMPDEST PUSH2 0x236 JUMP JUMPDEST PUSH1 0x40 MLOAD PUSH2 0xCE SWAP2 SWAP1 PUSH2 0xD0B JUMP JUMPDEST PUSH1 0x40 MLOAD DUP1 SWAP2 SUB SWAP1 RETURN JUMPDEST CALLVALUE DUP1 ISZERO PUSH2 0xE2 JUMPI PUSH0 DUP1 REVERT JUMPDEST POP PUSH2 0xFD PUSH1 0x4 DUP1 CALLDATASIZE SUB DUP2 ADD SWAP1 PUSH2 0xF8 SWAP2 SWAP1 PUSH2 0xCCD JUMP JUMPDEST PUSH2 0x260 JUMP JUMPDEST STOP JUMPDEST PUSH2 0x119 PUSH1 0x4 DUP1 CALLDATASIZE SUB DUP2 ADD SWAP1 PUSH2 0x114 SWAP2 SWAP1 PUSH2 0xD4E JUMP JUMPDEST PUSH2 0x5DF JUMP JUMPDEST PUSH1 0x40 MLOAD PUSH2 0x126 SWAP2 SWAP1 PUSH2 0xD8C JUMP JUMPDEST PUSH1 0x40 MLOAD DUP1 SWAP2 SUB SWAP1 RETURN JUMPDEST CALLVALUE DUP1 ISZERO PUSH2 0x13A JUMPI PUSH0 DUP1 REVERT JUMPDEST POP PUSH2 0x155 PUSH1 0x4 DUP1 CALLDATASIZE SUB DUP2 ADD SWAP1 PUSH2 0x150 SWAP2 SWAP1 PUSH2 0xBBE JUMP JUMPDEST PUSH2 0x9D5 JUMP JUMPDEST PUSH1 0x40 MLOAD PUSH2 0x168 SWAP8 SWAP7 SWAP6 SWAP5 SWAP4 SWAP3 SWAP2 SWAP1 PUSH2 0xDA5 JUMP JUMPDEST PUSH1 0x40 MLOAD DUP1 SWAP2 SUB SWAP1 RETURN JUMPDEST CALLVALUE DUP1 ISZERO PUSH2 0x17C JUMPI PUSH0 DUP1 REVERT JUMPDEST POP PUSH2 0x185 PUSH2 0xB82 JUMP JUMPDEST PUSH1 0x40 MLOAD PUSH2 0x192 SWAP2 SWAP1 PUSH2 0xD8C JUMP JUMPDEST PUSH1 0x40 MLOAD DUP1 SWAP2 SUB SWAP1 RETURN JUMPDEST PUSH1 0x1 PUSH1 0x20 MSTORE DUP1 PUSH0 MSTORE PUSH1 0x40 PUSH0 KECCAK256 PUSH0 SWAP2 POP SWAP1 POP DUP1 PUSH0 ADD PUSH0 SWAP1 SLOAD SWAP1 PUSH2 0x100 EXP SWAP1 DIV PUSH20 0xFFFFFFFFFFFFFFFFFFFFFFFFFFFFFFFFFFFFFFFF AND SWAP1 DUP1 PUSH1 0x1 ADD PUSH0 SWAP1 SLOAD SWAP1 PUSH2 0x100 EXP SWAP1 DIV PUSH20 0xFFFFFFFFFFFFFFFFFFFFFFFFFFFFFFFFFFFFFFFF AND SWAP1 DUP1 PUSH1 0x2 ADD SLOAD SWAP1 DUP1 PUSH1 0x3 ADD SLOAD SWAP1 DUP1 PUSH1 0x4 ADD SLOAD SWAP1 DUP1 PUSH1 0x5 ADD SLOAD SWAP1 DUP1 PUSH1 0x6 ADD PUSH0 SWAP1 SLOAD SWAP1 PUSH2 0x100 EXP SWAP1 DIV PUSH1 0xFF AND SWAP1 DUP1 PUSH1 0x6 ADD PUSH1 0x1 SWAP1 SLOAD SWAP1 PUSH2 0x100 EXP SWAP1 DIV PUSH1 0xFF AND SWAP1 POP DUP9 JUMP JUMPDEST PUSH1 0x2 PUSH1 0x20 MSTORE DUP2 PUSH0 MSTORE PUSH1 0x40 PUSH0 KECCAK256 PUSH1 0x20 MSTORE DUP1 PUSH0 MSTORE PUSH1 0x40 PUSH0 KECCAK256 PUSH0 SWAP2 POP SWAP2 POP SWAP1 SLOAD SWAP1 PUSH2 0x100 EXP SWAP1 DIV PUSH1 0xFF AND DUP2 JUMP JUMPDEST DUP2 PUSH1 0x1 PUSH0 DUP3 DUP2 MSTORE PUSH1 0x20 ADD SWAP1 DUP2 MSTORE PUSH1 0x20 ADD PUSH0 KECCAK256 PUSH1 0x6 ADD PUSH1 0x1 SWAP1 SLOAD SWAP1 PUSH2 0x100 EXP SWAP1 DIV PUSH1 0xFF AND PUSH2 0x2C2 JUMPI PUSH1 0x40 MLOAD PUSH32 0x8C379A000000000000000000000000000000000000000000000000000000000 DUP2 MSTORE PUSH1 0x4 ADD PUSH2 0x2B9 SWAP1 PUSH2 0xE6C JUMP JUMPDEST PUSH1 0x40 MLOAD DUP1 SWAP2 SUB SWAP1 REVERT JUMPDEST PUSH1 0x1 PUSH0 DUP3 DUP2 MSTORE PUSH1 0x20 ADD SWAP1 DUP2 MSTORE PUSH1 0x20 ADD PUSH0 KECCAK256 PUSH0 ADD PUSH0 SWAP1 SLOAD SWAP1 PUSH2 0x100 EXP SWAP1 DIV PUSH20 0xFFFFFFFFFFFFFFFFFFFFFFFFFFFFFFFFFFFFFFFF AND PUSH20 0xFFFFFFFFFFFFFFFFFFFFFFFFFFFFFFFFFFFFFFFF AND CALLER PUSH20 0xFFFFFFFFFFFFFFFFFFFFFFFFFFFFFFFFFFFFFFFF AND EQ PUSH2 0x362 JUMPI PUSH1 0x40 MLOAD PUSH32 0x8C379A000000000000000000000000000000000000000000000000000000000 DUP2 MSTORE PUSH1 0x4 ADD PUSH2 0x359 SWAP1 PUSH2 0xED4 JUMP JUMPDEST PUSH1 0x40 MLOAD DUP1 SWAP2 SUB SWAP1 REVERT JUMPDEST PUSH0 PUSH1 0x1 PUSH0 DUP6 DUP2 MSTORE PUSH1 0x20 ADD SWAP1 DUP2 MSTORE PUSH1 0x20 ADD PUSH0 KECCAK256 SWAP1 POP DUP1 PUSH1 0x6 ADD PUSH0 SWAP1 SLOAD SWAP1 PUSH2 0x100 EXP SWAP1 DIV PUSH1 0xFF AND PUSH2 0x3C6 JUMPI PUSH1 0x40 MLOAD PUSH32 0x8C379A000000000000000000000000000000000000000000000000000000000 DUP2 MSTORE PUSH1 0x4 ADD PUSH2 0x3BD SWAP1 PUSH2 0xF3C JUMP JUMPDEST PUSH1 0x40 MLOAD DUP1 SWAP2 SUB SWAP1 REVERT JUMPDEST DUP1 PUSH1 0x3 ADD SLOAD DUP4 LT PUSH2 0x40C JUMPI PUSH1 0x40 MLOAD PUSH32 0x8C379A000000000000000000000000000000000000000000000000000000000 DUP2 MSTORE PUSH1 0x4 ADD PUSH2 0x403 SWAP1 PUSH2 0xFA4 JUMP JUMPDEST PUSH1 0x40 MLOAD DUP1 SWAP2 SUB SWAP1 REVERT JUMPDEST PUSH1 0x2 PUSH0 DUP6 DUP2 MSTORE PUSH1 0x20 ADD SWAP1 DUP2 MSTORE PUSH1 0x20 ADD PUSH0 KECCAK256 PUSH0 DUP5 DUP2 MSTORE PUSH1 0x20 ADD SWAP1 DUP2 MSTORE PUSH1 0x20 ADD PUSH0 KECCAK256 PUSH0 SWAP1 SLOAD SWAP1 PUSH2 0x100 EXP SWAP1 DIV PUSH1 0xFF AND ISZERO PUSH2 0x479 JUMPI PUSH1 0x40 MLOAD PUSH32 0x8C379A000000000000000000000000000000000000000000000000000000000 DUP2 MSTORE PUSH1 0x4 ADD PUSH2 0x470 SWAP1 PUSH2 0x100C JUMP JUMPDEST PUSH1 0x40 MLOAD DUP1 SWAP2 SUB SWAP1 REVERT JUMPDEST PUSH1 0x1 PUSH1 0x2 PUSH0 DUP7 DUP2 MSTORE PUSH1 0x20 ADD SWAP1 DUP2 MSTORE PUSH1 0x20 ADD PUSH0 KECCAK256 PUSH0 DUP6 DUP2 MSTORE PUSH1 0x20 ADD SWAP1 DUP2 MSTORE PUSH1 0x20 ADD PUSH0 KECCAK256 PUSH0 PUSH2 0x100 EXP DUP2 SLOAD DUP2 PUSH1 0xFF MUL NOT AND SWAP1 DUP4 ISZERO ISZERO MUL OR SWAP1 SSTORE POP PUSH1 0x1 DUP2 PUSH1 0x5 ADD PUSH0 DUP3 DUP3 SLOAD PUSH2 0x4C5 SWAP2 SWAP1 PUSH2 0x1057 JUMP JUMPDEST SWAP3 POP POP DUP2 SWAP1 SSTORE POP PUSH0 DUP2 PUSH1 0x1 ADD PUSH0 SWAP1 SLOAD SWAP1 PUSH2 0x100 EXP SWAP1 DIV PUSH20 0xFFFFFFFFFFFFFFFFFFFFFFFFFFFFFFFFFFFFFFFF AND PUSH20 0xFFFFFFFFFFFFFFFFFFFFFFFFFFFFFFFFFFFFFFFF AND DUP3 PUSH1 0x4 ADD SLOAD PUSH1 0x40 MLOAD PUSH2 0x518 SWAP1 PUSH2 0x10B7 JUMP JUMPDEST PUSH0 PUSH1 0x40 MLOAD DUP1 DUP4 SUB DUP2 DUP6 DUP8 GAS CALL SWAP3 POP POP POP RETURNDATASIZE DUP1 PUSH0 DUP2 EQ PUSH2 0x552 JUMPI PUSH1 0x40 MLOAD SWAP2 POP PUSH1 0x1F NOT PUSH1 0x3F RETURNDATASIZE ADD AND DUP3 ADD PUSH1 0x40 MSTORE RETURNDATASIZE DUP3 MSTORE RETURNDATASIZE PUSH0 PUSH1 0x20 DUP5 ADD RETURNDATACOPY PUSH2 0x557 JUMP JUMPDEST PUSH1 0x60 SWAP2 POP JUMPDEST POP POP SWAP1 POP DUP1 PUSH2 0x59B JUMPI PUSH1 0x40 MLOAD PUSH32 0x8C379A000000000000000000000000000000000000000000000000000000000 DUP2 MSTORE PUSH1 0x4 ADD PUSH2 0x592 SWAP1 PUSH2 0x1115 JUMP JUMPDEST PUSH1 0x40 MLOAD DUP1 SWAP2 SUB SWAP1 REVERT JUMPDEST DUP4 DUP6 PUSH32 0xD33FCD27CBFB73A2D9058C968B560CCB306500BF536133802048489ECC7355E9 DUP5 PUSH1 0x4 ADD SLOAD PUSH1 0x40 MLOAD PUSH2 0x5D0 SWAP2 SWAP1 PUSH2 0xD8C JUMP JUMPDEST PUSH1 0x40 MLOAD DUP1 SWAP2 SUB SWAP1 LOG3 POP POP POP POP POP JUMP JUMPDEST PUSH0 DUP1 PUSH20 0xFFFFFFFFFFFFFFFFFFFFFFFFFFFFFFFFFFFFFFFF AND DUP4 PUSH20 0xFFFFFFFFFFFFFFFFFFFFFFFFFFFFFFFFFFFFFFFF AND SUB PUSH2 0x64E JUMPI PUSH1 0x40 MLOAD PUSH32 0x8C379A000000000000000000000000000000000000000000000000000000000 DUP2 MSTORE PUSH1 0x4 ADD PUSH2 0x645 SWAP1 PUSH2 0x117D JUMP JUMPDEST PUSH1 0x40 MLOAD DUP1 SWAP2 SUB SWAP1 REVERT JUMPDEST CALLER PUSH20 0xFFFFFFFFFFFFFFFFFFFFFFFFFFFFFFFFFFFFFFFF AND DUP4 PUSH20 0xFFFFFFFFFFFFFFFFFFFFFFFFFFFFFFFFFFFFFFFF AND SUB PUSH2 0x6BC JUMPI PUSH1 0x40 MLOAD PUSH32 0x8C379A000000000000000000000000000000000000000000000000000000000 DUP2 MSTORE PUSH1 0x4 ADD PUSH2 0x6B3 SWAP1 PUSH2 0x11E5 JUMP JUMPDEST PUSH1 0x40 MLOAD DUP1 SWAP2 SUB SWAP1 REVERT JUMPDEST PUSH0 DUP3 GT PUSH2 0x6FE JUMPI PUSH1 0x40 MLOAD PUSH32 0x8C379A000000000000000000000000000000000000000000000000000000000 DUP2 MSTORE PUSH1 0x4 ADD PUSH2 0x6F5 SWAP1 PUSH2 0x124D JUMP JUMPDEST PUSH1 0x40 MLOAD DUP1 SWAP2 SUB SWAP1 REVERT JUMPDEST PUSH0 CALLVALUE GT PUSH2 0x740 JUMPI PUSH1 0x40 MLOAD PUSH32 0x8C379A000000000000000000000000000000000000000000000000000000000 DUP2 MSTORE PUSH1 0x4 ADD PUSH2 0x737 SWAP1 PUSH2 0x12B5 JUMP JUMPDEST PUSH1 0x40 MLOAD DUP1 SWAP2 SUB SWAP1 REVERT JUMPDEST PUSH0 DUP3 CALLVALUE PUSH2 0x74D SWAP2 SWAP1 PUSH2 0x1300 JUMP JUMPDEST EQ PUSH2 0x78D JUMPI PUSH1 0x40 MLOAD PUSH32 0x8C379A000000000000000000000000000000000000000000000000000000000 DUP2 MSTORE PUSH1 0x4 ADD PUSH2 0x784 SWAP1 PUSH2 0x13A0 JUMP JUMPDEST PUSH1 0x40 MLOAD DUP1 SWAP2 SUB SWAP1 REVERT JUMPDEST PUSH1 0x1 PUSH0 DUP1 DUP3 DUP3 SLOAD PUSH2 0x79E SWAP2 SWAP1 PUSH2 0x1057 JUMP JUMPDEST SWAP3 POP POP DUP2 SWAP1 SSTORE POP PUSH0 DUP3 CALLVALUE PUSH2 0x7B2 SWAP2 SWAP1 PUSH2 0x13BE JUMP JUMPDEST SWAP1 POP PUSH1 0x40 MLOAD DUP1 PUSH2 0x100 ADD PUSH1 0x40 MSTORE DUP1 CALLER PUSH20 0xFFFFFFFFFFFFFFFFFFFFFFFFFFFFFFFFFFFFFFFF AND DUP2 MSTORE PUSH1 0x20 ADD DUP6 PUSH20 0xFFFFFFFFFFFFFFFFFFFFFFFFFFFFFFFFFFFFFFFF AND DUP2 MSTORE PUSH1 0x20 ADD CALLVALUE DUP2 MSTORE PUSH1 0x20 ADD DUP5 DUP2 MSTORE PUSH1 0x20 ADD DUP3 DUP2 MSTORE PUSH1 0x20 ADD PUSH0 DUP2 MSTORE PUSH1 0x20 ADD PUSH1 0x1 ISZERO ISZERO DUP2 MSTORE PUSH1 0x20 ADD PUSH1 0x1 ISZERO ISZERO DUP2 MSTORE POP PUSH1 0x1 PUSH0 DUP1 SLOAD DUP2 MSTORE PUSH1 0x20 ADD SWAP1 DUP2 MSTORE PUSH1 0x20 ADD PUSH0 KECCAK256 PUSH0 DUP3 ADD MLOAD DUP2 PUSH0 ADD PUSH0 PUSH2 0x100 EXP DUP2 SLOAD DUP2 PUSH20 0xFFFFFFFFFFFFFFFFFFFFFFFFFFFFFFFFFFFFFFFF MUL NOT AND SWAP1 DUP4 PUSH20 0xFFFFFFFFFFFFFFFFFFFFFFFFFFFFFFFFFFFFFFFF AND MUL OR SWAP1 SSTORE POP PUSH1 0x20 DUP3 ADD MLOAD DUP2 PUSH1 0x1 ADD PUSH0 PUSH2 0x100 EXP DUP2 SLOAD DUP2 PUSH20 0xFFFFFFFFFFFFFFFFFFFFFFFFFFFFFFFFFFFFFFFF MUL NOT AND SWAP1 DUP4 PUSH20 0xFFFFFFFFFFFFFFFFFFFFFFFFFFFFFFFFFFFFFFFF AND MUL OR SWAP1 SSTORE POP PUSH1 0x40 DUP3 ADD MLOAD DUP2 PUSH1 0x2 ADD SSTORE PUSH1 0x60 DUP3 ADD MLOAD DUP2 PUSH1 0x3 ADD SSTORE PUSH1 0x80 DUP3 ADD MLOAD DUP2 PUSH1 0x4 ADD SSTORE PUSH1 0xA0 DUP3 ADD MLOAD DUP2 PUSH1 0x5 ADD SSTORE PUSH1 0xC0 DUP3 ADD MLOAD DUP2 PUSH1 0x6 ADD PUSH0 PUSH2 0x100 EXP DUP2 SLOAD DUP2 PUSH1 0xFF MUL NOT AND SWAP1 DUP4 ISZERO ISZERO MUL OR SWAP1 SSTORE POP PUSH1 0xE0 DUP3 ADD MLOAD DUP2 PUSH1 0x6 ADD PUSH1 0x1 PUSH2 0x100 EXP DUP2 SLOAD DUP2 PUSH1 0xFF MUL NOT AND SWAP1 DUP4 ISZERO ISZERO MUL OR SWAP1 SSTORE POP SWAP1 POP POP DUP4 PUSH20 0xFFFFFFFFFFFFFFFFFFFFFFFFFFFFFFFFFFFFFFFF AND CALLER PUSH20 0xFFFFFFFFFFFFFFFFFFFFFFFFFFFFFFFFFFFFFFFF AND PUSH0 SLOAD PUSH32 0x39D740C2A801CD526991F897CE41F8FB74A25057B9486BDEB4A44C1622E939AD CALLVALUE DUP8 DUP7 PUSH1 0x40 MLOAD PUSH2 0x989 SWAP4 SWAP3 SWAP2 SWAP1 PUSH2 0x13EE JUMP JUMPDEST PUSH1 0x40 MLOAD DUP1 SWAP2 SUB SWAP1 LOG4 PUSH0 SLOAD PUSH32 0x26130D0CD3F6AA101D05E4A4F2FF016FD5B934363D17BDD03FF5DC03EC5934A9 CALLVALUE PUSH1 0x40 MLOAD PUSH2 0x9C2 SWAP2 SWAP1 PUSH2 0xD8C JUMP JUMPDEST PUSH1 0x40 MLOAD DUP1 SWAP2 SUB SWAP1 LOG2 PUSH0 SLOAD SWAP2 POP POP SWAP3 SWAP2 POP POP JUMP JUMPDEST PUSH0 DUP1 PUSH0 DUP1 PUSH0 DUP1 PUSH0 DUP1 PUSH1 0x1 PUSH0 DUP11 DUP2 MSTORE PUSH1 0x20 ADD SWAP1 DUP2 MSTORE PUSH1 0x20 ADD PUSH0 KECCAK256 PUSH1 0x40 MLOAD DUP1 PUSH2 0x100 ADD PUSH1 0x40 MSTORE SWAP1 DUP2 PUSH0 DUP3 ADD PUSH0 SWAP1 SLOAD SWAP1 PUSH2 0x100 EXP SWAP1 DIV PUSH20 0xFFFFFFFFFFFFFFFFFFFFFFFFFFFFFFFFFFFFFFFF AND PUSH20 0xFFFFFFFFFFFFFFFFFFFFFFFFFFFFFFFFFFFFFFFF AND PUSH20 0xFFFFFFFFFFFFFFFFFFFFFFFFFFFFFFFFFFFFFFFF AND DUP2 MSTORE PUSH1 0x20 ADD PUSH1 0x1 DUP3 ADD PUSH0 SWAP1 SLOAD SWAP1 PUSH2 0x100 EXP SWAP1 DIV PUSH20 0xFFFFFFFFFFFFFFFFFFFFFFFFFFFFFFFFFFFFFFFF AND PUSH20 0xFFFFFFFFFFFFFFFFFFFFFFFFFFFFFFFFFFFFFFFF AND PUSH20 0xFFFFFFFFFFFFFFFFFFFFFFFFFFFFFFFFFFFFFFFF AND DUP2 MSTORE PUSH1 0x20 ADD PUSH1 0x2 DUP3 ADD SLOAD DUP2 MSTORE PUSH1 0x20 ADD PUSH1 0x3 DUP3 ADD SLOAD DUP2 MSTORE PUSH1 0x20 ADD PUSH1 0x4 DUP3 ADD SLOAD DUP2 MSTORE PUSH1 0x20 ADD PUSH1 0x5 DUP3 ADD SLOAD DUP2 MSTORE PUSH1 0x20 ADD PUSH1 0x6 DUP3 ADD PUSH0 SWAP1 SLOAD SWAP1 PUSH2 0x100 EXP SWAP1 DIV PUSH1 0xFF AND ISZERO ISZERO ISZERO ISZERO DUP2 MSTORE PUSH1 0x20 ADD PUSH1 0x6 DUP3 ADD PUSH1 0x1 SWAP1 SLOAD SWAP1 PUSH2 0x100 EXP SWAP1 DIV PUSH1 0xFF AND ISZERO ISZERO ISZERO ISZERO DUP2 MSTORE POP POP SWAP1 POP DUP1 PUSH1 0xE0 ADD MLOAD PUSH2 0xB46 JUMPI PUSH1 0x40 MLOAD PUSH32 0x8C379A000000000000000000000000000000000000000000000000000000000 DUP2 MSTORE PUSH1 0x4 ADD PUSH2 0xB3D SWAP1 PUSH2 0xE6C JUMP JUMPDEST PUSH1 0x40 MLOAD DUP1 SWAP2 SUB SWAP1 REVERT JUMPDEST DUP1 PUSH0 ADD MLOAD DUP2 PUSH1 0x20 ADD MLOAD DUP3 PUSH1 0x40 ADD MLOAD DUP4 PUSH1 0x60 ADD MLOAD DUP5 PUSH1 0x80 ADD MLOAD DUP6 PUSH1 0xA0 ADD MLOAD DUP7 PUSH1 0xC0 ADD MLOAD SWAP8 POP SWAP8 POP SWAP8 POP SWAP8 POP SWAP8 POP SWAP8 POP SWAP8 POP POP SWAP2 SWAP4 SWAP6 SWAP8 SWAP1 SWAP3 SWAP5 SWAP7 POP JUMP JUMPDEST PUSH0 SLOAD DUP2 JUMP JUMPDEST PUSH0 DUP1 REVERT JUMPDEST PUSH0 DUP2 SWAP1 POP SWAP2 SWAP1 POP JUMP JUMPDEST PUSH2 0xB9D DUP2 PUSH2 0xB8B JUMP JUMPDEST DUP2 EQ PUSH2 0xBA7 JUMPI PUSH0 DUP1 REVERT JUMPDEST POP JUMP JUMPDEST PUSH0 DUP2 CALLDATALOAD SWAP1 POP PUSH2 0xBB8 DUP2 PUSH2 0xB94 JUMP JUMPDEST SWAP3 SWAP2 POP POP JUMP JUMPDEST PUSH0 PUSH1 0x20 DUP3 DUP5 SUB SLT ISZERO PUSH2 0xBD3 JUMPI PUSH2 0xBD2 PUSH2 0xB87 JUMP JUMPDEST JUMPDEST PUSH0 PUSH2 0xBE0 DUP5 DUP3 DUP6 ADD PUSH2 0xBAA JUMP JUMPDEST SWAP2 POP POP SWAP3 SWAP2 POP POP JUMP JUMPDEST PUSH0 PUSH20 0xFFFFFFFFFFFFFFFFFFFFFFFFFFFFFFFFFFFFFFFF DUP3 AND SWAP1 POP SWAP2 SWAP1 POP JUMP JUMPDEST PUSH0 PUSH2 0xC12 DUP3 PUSH2 0xBE9 JUMP JUMPDEST SWAP1 POP SWAP2 SWAP1 POP JUMP JUMPDEST PUSH2 0xC22 DUP2 PUSH2 0xC08 JUMP JUMPDEST DUP3 MSTORE POP POP JUMP JUMPDEST PUSH2 0xC31 DUP2 PUSH2 0xB8B JUMP JUMPDEST DUP3 MSTORE POP POP JUMP JUMPDEST PUSH0 DUP2 ISZERO ISZERO SWAP1 POP SWAP2 SWAP1 POP JUMP JUMPDEST PUSH2 0xC4B DUP2 PUSH2 0xC37 JUMP JUMPDEST DUP3 MSTORE POP POP JUMP JUMPDEST PUSH0 PUSH2 0x100 DUP3 ADD SWAP1 POP PUSH2 0xC65 PUSH0 DUP4 ADD DUP12 PUSH2 0xC19 JUMP JUMPDEST PUSH2 0xC72 PUSH1 0x20 DUP4 ADD DUP11 PUSH2 0xC19 JUMP JUMPDEST PUSH2 0xC7F PUSH1 0x40 DUP4 ADD DUP10 PUSH2 0xC28 JUMP JUMPDEST PUSH2 0xC8C PUSH1 0x60 DUP4 ADD DUP9 PUSH2 0xC28 JUMP JUMPDEST PUSH2 0xC99 PUSH1 0x80 DUP4 ADD DUP8 PUSH2 0xC28 JUMP JUMPDEST PUSH2 0xCA6 PUSH1 0xA0 DUP4 ADD DUP7 PUSH2 0xC28 JUMP JUMPDEST PUSH2 0xCB3 PUSH1 0xC0 DUP4 ADD DUP6 PUSH2 0xC42 JUMP JUMPDEST PUSH2 0xCC0 PUSH1 0xE0 DUP4 ADD DUP5 PUSH2 0xC42 JUMP JUMPDEST SWAP10 SWAP9 POP POP POP POP POP POP POP POP POP JUMP JUMPDEST PUSH0 DUP1 PUSH1 0x40 DUP4 DUP6 SUB SLT ISZERO PUSH2 0xCE3 JUMPI PUSH2 0xCE2 PUSH2 0xB87 JUMP JUMPDEST JUMPDEST PUSH0 PUSH2 0xCF0 DUP6 DUP3 DUP7 ADD PUSH2 0xBAA JUMP JUMPDEST SWAP3 POP POP PUSH1 0x20 PUSH2 0xD01 DUP6 DUP3 DUP7 ADD PUSH2 0xBAA JUMP JUMPDEST SWAP2 POP POP SWAP3 POP SWAP3 SWAP1 POP JUMP JUMPDEST PUSH0 PUSH1 0x20 DUP3 ADD SWAP1 POP PUSH2 0xD1E PUSH0 DUP4 ADD DUP5 PUSH2 0xC42 JUMP JUMPDEST SWAP3 SWAP2 POP POP JUMP JUMPDEST PUSH2 0xD2D DUP2 PUSH2 0xC08 JUMP JUMPDEST DUP2 EQ PUSH2 0xD37 JUMPI PUSH0 DUP1 REVERT JUMPDEST POP JUMP JUMPDEST PUSH0 DUP2 CALLDATALOAD SWAP1 POP PUSH2 0xD48 DUP2 PUSH2 0xD24 JUMP JUMPDEST SWAP3 SWAP2 POP POP JUMP JUMPDEST PUSH0 DUP1 PUSH1 0x40 DUP4 DUP6 SUB SLT ISZERO PUSH2 0xD64 JUMPI PUSH2 0xD63 PUSH2 0xB87 JUMP JUMPDEST JUMPDEST PUSH0 PUSH2 0xD71 DUP6 DUP3 DUP7 ADD PUSH2 0xD3A JUMP JUMPDEST SWAP3 POP POP PUSH1 0x20 PUSH2 0xD82 DUP6 DUP3 DUP7 ADD PUSH2 0xBAA JUMP JUMPDEST SWAP2 POP POP SWAP3 POP SWAP3 SWAP1 POP JUMP JUMPDEST PUSH0 PUSH1 0x20 DUP3 ADD SWAP1 POP PUSH2 0xD9F PUSH0 DUP4 ADD DUP5 PUSH2 0xC28 JUMP JUMPDEST SWAP3 SWAP2 POP POP JUMP JUMPDEST PUSH0 PUSH1 0xE0 DUP3 ADD SWAP1 POP PUSH2 0xDB8 PUSH0 DUP4 ADD DUP11 PUSH2 0xC19 JUMP JUMPDEST PUSH2 0xDC5 PUSH1 0x20 DUP4 ADD DUP10 PUSH2 0xC19 JUMP JUMPDEST PUSH2 0xDD2 PUSH1 0x40 DUP4 ADD DUP9 PUSH2 0xC28 JUMP JUMPDEST PUSH2 0xDDF PUSH1 0x60 DUP4 ADD DUP8 PUSH2 0xC28 JUMP JUMPDEST PUSH2 0xDEC PUSH1 0x80 DUP4 ADD DUP7 PUSH2 0xC28 JUMP JUMPDEST PUSH2 0xDF9 PUSH1 0xA0 DUP4 ADD DUP6 PUSH2 0xC28 JUMP JUMPDEST PUSH2 0xE06 PUSH1 0xC0 DUP4 ADD DUP5 PUSH2 0xC42 JUMP JUMPDEST SWAP9 SWAP8 POP POP POP POP POP POP POP POP JUMP JUMPDEST PUSH0 DUP3 DUP3 MSTORE PUSH1 0x20 DUP3 ADD SWAP1 POP SWAP3 SWAP2 POP POP JUMP JUMPDEST PUSH32 0x50726F6A65637420646F6573206E6F7420657869737400000000000000000000 PUSH0 DUP3 ADD MSTORE POP JUMP JUMPDEST PUSH0 PUSH2 0xE56 PUSH1 0x16 DUP4 PUSH2 0xE12 JUMP JUMPDEST SWAP2 POP PUSH2 0xE61 DUP3 PUSH2 0xE22 JUMP JUMPDEST PUSH1 0x20 DUP3 ADD SWAP1 POP SWAP2 SWAP1 POP JUMP JUMPDEST PUSH0 PUSH1 0x20 DUP3 ADD SWAP1 POP DUP2 DUP2 SUB PUSH0 DUP4 ADD MSTORE PUSH2 0xE83 DUP2 PUSH2 0xE4A JUMP JUMPDEST SWAP1 POP SWAP2 SWAP1 POP JUMP JUMPDEST PUSH32 0x4F6E6C7920636C69656E742063616E2063616C6C000000000000000000000000 PUSH0 DUP3 ADD MSTORE POP JUMP JUMPDEST PUSH0 PUSH2 0xEBE PUSH1 0x14 DUP4 PUSH2 0xE12 JUMP JUMPDEST SWAP2 POP PUSH2 0xEC9 DUP3 PUSH2 0xE8A JUMP JUMPDEST PUSH1 0x20 DUP3 ADD SWAP1 POP SWAP2 SWAP1 POP JUMP JUMPDEST PUSH0 PUSH1 0x20 DUP3 ADD SWAP1 POP DUP2 DUP2 SUB PUSH0 DUP4 ADD MSTORE PUSH2 0xEEB DUP2 PUSH2 0xEB2 JUMP JUMPDEST SWAP1 POP SWAP2 SWAP1 POP JUMP JUMPDEST PUSH32 0x50726F6A656374206973206E6F742066756E6465640000000000000000000000 PUSH0 DUP3 ADD MSTORE POP JUMP JUMPDEST PUSH0 PUSH2 0xF26 PUSH1 0x15 DUP4 PUSH2 0xE12 JUMP JUMPDEST SWAP2 POP PUSH2 0xF31 DUP3 PUSH2 0xEF2 JUMP JUMPDEST PUSH1 0x20 DUP3 ADD SWAP1 POP SWAP2 SWAP1 POP JUMP JUMPDEST PUSH0 PUSH1 0x20 DUP3 ADD SWAP1 POP DUP2 DUP2 SUB PUSH0 DUP4 ADD MSTORE PUSH2 0xF53 DUP2 PUSH2 0xF1A JUMP JUMPDEST SWAP1 POP SWAP2 SWAP1 POP JUMP JUMPDEST PUSH32 0x496E76616C6964206D696C6573746F6E6520696E646578000000000000000000 PUSH0 DUP3 ADD MSTORE POP JUMP JUMPDEST PUSH0 PUSH2 0xF8E PUSH1 0x17 DUP4 PUSH2 0xE12 JUMP JUMPDEST SWAP2 POP PUSH2 0xF99 DUP3 PUSH2 0xF5A JUMP JUMPDEST PUSH1 0x20 DUP3 ADD SWAP1 POP SWAP2 SWAP1 POP JUMP JUMPDEST PUSH0 PUSH1 0x20 DUP3 ADD SWAP1 POP DUP2 DUP2 SUB PUSH0 DUP4 ADD MSTORE PUSH2 0xFBB DUP2 PUSH2 0xF82 JUMP JUMPDEST SWAP1 POP SWAP2 SWAP1 POP JUMP JUMPDEST PUSH32 0x4D696C6573746F6E6520616C72656164792072656C6561736564000000000000 PUSH0 DUP3 ADD MSTORE POP JUMP JUMPDEST PUSH0 PUSH2 0xFF6 PUSH1 0x1A DUP4 PUSH2 0xE12 JUMP JUMPDEST SWAP2 POP PUSH2 0x1001 DUP3 PUSH2 0xFC2 JUMP JUMPDEST PUSH1 0x20 DUP3 ADD SWAP1 POP SWAP2 SWAP1 POP JUMP JUMPDEST PUSH0 PUSH1 0x20 DUP3 ADD SWAP1 POP DUP2 DUP2 SUB PUSH0 DUP4 ADD MSTORE PUSH2 0x1023 DUP2 PUSH2 0xFEA JUMP JUMPDEST SWAP1 POP SWAP2 SWAP1 POP JUMP JUMPDEST PUSH32 0x4E487B7100000000000000000000000000000000000000000000000000000000 PUSH0 MSTORE PUSH1 0x11 PUSH1 0x4 MSTORE PUSH1 0x24 PUSH0 REVERT JUMPDEST PUSH0 PUSH2 0x1061 DUP3 PUSH2 0xB8B JUMP JUMPDEST SWAP2 POP PUSH2 0x106C DUP4 PUSH2 0xB8B JUMP JUMPDEST SWAP3 POP DUP3 DUP3 ADD SWAP1 POP DUP1 DUP3 GT ISZERO PUSH2 0x1084 JUMPI PUSH2 0x1083 PUSH2 0x102A JUMP JUMPDEST JUMPDEST SWAP3 SWAP2 POP POP JUMP JUMPDEST PUSH0 DUP2 SWAP1 POP SWAP3 SWAP2 POP POP JUMP JUMPDEST POP JUMP JUMPDEST PUSH0 PUSH2 0x10A2 PUSH0 DUP4 PUSH2 0x108A JUMP JUMPDEST SWAP2 POP PUSH2 0x10AD DUP3 PUSH2 0x1094 JUMP JUMPDEST PUSH0 DUP3 ADD SWAP1 POP SWAP2 SWAP1 POP JUMP JUMPDEST PUSH0 PUSH2 0x10C1 DUP3 PUSH2 0x1097 JUMP JUMPDEST SWAP2 POP DUP2 SWAP1 POP SWAP2 SWAP1 POP JUMP JUMPDEST PUSH32 0x455448207472616E73666572206661696C656400000000000000000000000000 PUSH0 DUP3 ADD MSTORE POP JUMP JUMPDEST PUSH0 PUSH2 0x10FF PUSH1 0x13 DUP4 PUSH2 0xE12 JUMP JUMPDEST SWAP2 POP PUSH2 0x110A DUP3 PUSH2 0x10CB JUMP JUMPDEST PUSH1 0x20 DUP3 ADD SWAP1 POP SWAP2 SWAP1 POP JUMP JUMPDEST PUSH0 PUSH1 0x20 DUP3 ADD SWAP1 POP DUP2 DUP2 SUB PUSH0 DUP4 ADD MSTORE PUSH2 0x112C DUP2 PUSH2 0x10F3 JUMP JUMPDEST SWAP1 POP SWAP2 SWAP1 POP JUMP JUMPDEST PUSH32 0x496E76616C69642070726F766964657200000000000000000000000000000000 PUSH0 DUP3 ADD MSTORE POP JUMP JUMPDEST PUSH0 PUSH2 0x1167 PUSH1 0x10 DUP4 PUSH2 0xE12 JUMP JUMPDEST SWAP2 POP PUSH2 0x1172 DUP3 PUSH2 0x1133 JUMP JUMPDEST PUSH1 0x20 DUP3 ADD SWAP1 POP SWAP2 SWAP1 POP JUMP JUMPDEST PUSH0 PUSH1 0x20 DUP3 ADD SWAP1 POP DUP2 DUP2 SUB PUSH0 DUP4 ADD MSTORE PUSH2 0x1194 DUP2 PUSH2 0x115B JUMP JUMPDEST SWAP1 POP SWAP2 SWAP1 POP JUMP JUMPDEST PUSH32 0x436C69656E7420616E642070726F7669646572206D7573742064696666657200 PUSH0 DUP3 ADD MSTORE POP JUMP JUMPDEST PUSH0 PUSH2 0x11CF PUSH1 0x1F DUP4 PUSH2 0xE12 JUMP JUMPDEST SWAP2 POP PUSH2 0x11DA DUP3 PUSH2 0x119B JUMP JUMPDEST PUSH1 0x20 DUP3 ADD SWAP1 POP SWAP2 SWAP1 POP JUMP JUMPDEST PUSH0 PUSH1 0x20 DUP3 ADD SWAP1 POP DUP2 DUP2 SUB PUSH0 DUP4 ADD MSTORE PUSH2 0x11FC DUP2 PUSH2 0x11C3 JUMP JUMPDEST SWAP1 POP SWAP2 SWAP1 POP JUMP JUMPDEST PUSH32 0x4D696C6573746F6E6520636F756E74206D757374206265203E20300000000000 PUSH0 DUP3 ADD MSTORE POP JUMP JUMPDEST PUSH0 PUSH2 0x1237 PUSH1 0x1B DUP4 PUSH2 0xE12 JUMP JUMPDEST SWAP2 POP PUSH2 0x1242 DUP3 PUSH2 0x1203 JUMP JUMPDEST PUSH1 0x20 DUP3 ADD SWAP1 POP SWAP2 SWAP1 POP JUMP JUMPDEST PUSH0 PUSH1 0x20 DUP3 ADD SWAP1 POP DUP2 DUP2 SUB PUSH0 DUP4 ADD MSTORE PUSH2 0x1264 DUP2 PUSH2 0x122B JUMP JUMPDEST SWAP1 POP SWAP2 SWAP1 POP JUMP JUMPDEST PUSH32 0x46756E64696E6720697320726571756972656400000000000000000000000000 PUSH0 DUP3 ADD MSTORE POP JUMP JUMPDEST PUSH0 PUSH2 0x129F PUSH1 0x13 DUP4 PUSH2 0xE12 JUMP JUMPDEST SWAP2 POP PUSH2 0x12AA DUP3 PUSH2 0x126B JUMP JUMPDEST PUSH1 0x20 DUP3 ADD SWAP1 POP SWAP2 SWAP1 POP JUMP JUMPDEST PUSH0 PUSH1 0x20 DUP3 ADD SWAP1 POP DUP2 DUP2 SUB PUSH0 DUP4 ADD MSTORE PUSH2 0x12CC DUP2 PUSH2 0x1293 JUMP JUMPDEST SWAP1 POP SWAP2 SWAP1 POP JUMP JUMPDEST PUSH32 0x4E487B7100000000000000000000000000000000000000000000000000000000 PUSH0 MSTORE PUSH1 0x12 PUSH1 0x4 MSTORE PUSH1 0x24 PUSH0 REVERT JUMPDEST PUSH0 PUSH2 0x130A DUP3 PUSH2 0xB8B JUMP JUMPDEST SWAP2 POP PUSH2 0x1315 DUP4 PUSH2 0xB8B JUMP JUMPDEST SWAP3 POP DUP3 PUSH2 0x1325 JUMPI PUSH2 0x1324 PUSH2 0x12D3 JUMP JUMPDEST JUMPDEST DUP3 DUP3 MOD SWAP1 POP SWAP3 SWAP2 POP POP JUMP JUMPDEST PUSH32 0x455448206D7573742064697669646520657175616C6C79206279206D696C6573 PUSH0 DUP3 ADD MSTORE PUSH32 0x746F6E6573000000000000000000000000000000000000000000000000000000 PUSH1 0x20 DUP3 ADD MSTORE POP JUMP JUMPDEST PUSH0 PUSH2 0x138A PUSH1 0x25 DUP4 PUSH2 0xE12 JUMP JUMPDEST SWAP2 POP PUSH2 0x1395 DUP3 PUSH2 0x1330 JUMP JUMPDEST PUSH1 0x40 DUP3 ADD SWAP1 POP SWAP2 SWAP1 POP JUMP JUMPDEST PUSH0 PUSH1 0x20 DUP3 ADD SWAP1 POP DUP2 DUP2 SUB PUSH0 DUP4 ADD MSTORE PUSH2 0x13B7 DUP2 PUSH2 0x137E JUMP JUMPDEST SWAP1 POP SWAP2 SWAP1 POP JUMP JUMPDEST PUSH0 PUSH2 0x13C8 DUP3 PUSH2 0xB8B JUMP JUMPDEST SWAP2 POP PUSH2 0x13D3 DUP4 PUSH2 0xB8B JUMP JUMPDEST SWAP3 POP DUP3 PUSH2 0x13E3 JUMPI PUSH2 0x13E2 PUSH2 0x12D3 JUMP JUMPDEST JUMPDEST DUP3 DUP3 DIV SWAP1 POP SWAP3 SWAP2 POP POP JUMP JUMPDEST PUSH0 PUSH1 0x60 DUP3 ADD SWAP1 POP PUSH2 0x1401 PUSH0 DUP4 ADD DUP7 PUSH2 0xC28 JUMP JUMPDEST PUSH2 0x140E PUSH1 0x20 DUP4 ADD DUP6 PUSH2 0xC28 JUMP JUMPDEST PUSH2 0x141B PUSH1 0x40 DUP4 ADD DUP5 PUSH2 0xC28 JUMP JUMPDEST SWAP5 SWAP4 POP POP POP POP JUMP INVALID LOG2 PUSH5 0x6970667358 0x22 SLT KECCAK256 EXTCODECOPY JUMP AND RETURNDATASIZE STATICCALL PUSH9 0x12E5887F239275A77D RETURNDATACOPY EQ 0xE6 0x2B TIMESTAMP 0xA6 CALLDATASIZE 0x21 PUSH29 0x29183922AE93DF7D64736F6C6343000818003300000000000000000000 "},"methodIdentifiers":{"createProject(address,uint256)":"e82d6572","getProject(uint256)":"f0f3f2c8","milestoneReleased(uint256,uint256)":"34ae0561","projectCounter()":"f8a518ed","projects(uint256)":"107046bd","releaseMilestone(uint256,uint256)":"dbaf0910"}}}}}